:10000000801A0020CD1D000071690000B91D00009C
:10001000B91D0000B91D0000B91D0000000000005E
:10002000000000000000000000000000451F00006C
:10003000B91D000000000000E11E0000B91D000015
:100040000921000009210000092100000921000008
:1000500009210000092100000921000009210000F8
:1000600009210000092100000921000009210000E8
:1000700009210000092100000921000009210000D8
:1000800009210000092100000921000009210000C8
:1000900009210000092100000921000009210000B8
:1000A00009210000092100000921000009210000A8
:1000B0000921000009210000092100000921000098
:1000C0000921000009210000092100000921000088
:1000D0000921000009210000092100000921000078
:1000E0000921000009210000092100000921000068
:1000F0000921000009210000092100000921000058
:1001000081F0004102E000BF83F0004330B54FEAC8
:1001100041044FEA430594EA050F08BF90EA020F35
:100120001FBF54EA000C55EA020C7FEA645C7FEAC8
:10013000655C00F0E2804FEA5454D4EB5555B8BFEB
:100140006D420CDD2C4480EA020281EA030382EA5C
:10015000000083EA010180EA020281EA0303362DEE
:1001600088BF30BD11F0004F4FEA01314FF4801CC1
:100170004CEA113102D0404261EB410113F0004FD3
:100180004FEA03334CEA133302D0524263EB43038A
:1001900094EA050F00F0A780A4F10104D5F1200E28
:1001A0000DDB02FA0EFC22FA05F2801841F1000183
:1001B00003FA0EF2801843FA05F359410EE0A5F157
:1001C00020050EF1200E012A03FA0EFC28BF4CF088
:1001D000020C43FA05F3C01851EBE37101F000453E
:1001E00007D54FF0000EDCF1000C7EEB00006EEB4B
:1001F0000101B1F5801F1BD3B1F5001F0CD34908D5
:100200005FEA30004FEA3C0C04F101044FEA44522B
:1002100012F5800F80F09A80BCF1004F08BF5FEAB2
:10022000500C50F1000041EB045141EA050130BD92
:100230005FEA4C0C404141EB0101013C28BFB1F5A4
:10024000801FE9D291F0000F04BF01460020B1FAEF
:1002500081F308BF2033A3F10B03B3F120020CDAC2
:100260000C3208DD02F1140CC2F10C0201FA0CF0A0
:1002700021FA02F10CE002F11402D8BFC2F1200C05
:1002800001FA02F120FA0CFCDCBF41EA0C019040BB
:10029000E41AA2BF01EB0451294330BD6FEA040404
:1002A0001F3C1CDA0C340EDC04F11404C4F12002EF
:1002B00020FA04F001FA02F340EA030021FA04F301
:1002C00045EA030130BDC4F10C04C4F1200220FA58
:1002D00002F001FA04F340EA0300294630BD21FA96
:1002E00004F0294630BD94F0000F83F4801306BF5C
:1002F00081F480110134013D4EE77FEA645C18BF50
:100300007FEA655C29D094EA050F08BF90EA020FE6
:1003100005D054EA000C04BF1946104630BD91EADE
:10032000030F1EBF0021002030BD5FEA545C05D1E1
:100330004000494128BF41F0004130BD14F5800420
:100340003CBF01F5801130BD01F0004545F0FE4194
:1003500041F470014FF0000030BD7FEA645C1ABFC9
:10036000194610467FEA655C1CBF0B46024650EA00
:10037000013406BF52EA033591EA030F41F400212C
:1003800030BD00BF90F0000F04BF0021704730B5B2
:100390004FF4806404F132044FF000054FF0000187
:1003A00050E700BF90F0000F04BF0021704730B548
:1003B0004FF4806404F1320410F0004548BF40421D
:1003C0004FF000013EE700BF42004FEAE2014FEA72
:1003D00031014FEA02701FBF12F07F4393F07F4F4D
:1003E00081F06051704732F07F4208BF704793F050
:1003F0007F4F04BF41F40021704730B54FF4607463
:1004000001F0004521F000411CE700BF50EA010265
:1004100008BF704730B54FF000050AE050EA01020E
:1004200008BF704730B511F0004502D5404261EB7E
:1004300041014FF4806404F132045FEA915C3FF4BF
:10044000D8AE4FF003025FEADC0C18BF03325FEA5C
:10045000DC0C18BF033202EBDC02C2F1200300FA0D
:1004600003FC20FA02F001FA03FE40EA0E0021FA32
:1004700002F11444BDE600BF70B54FF0FF0C4CF420
:10048000E06C1CEA11541DBF1CEA135594EA0C0FD2
:1004900095EA0C0F00F0DEF82C4481EA030621EA0D
:1004A0004C5123EA4C5350EA013518BF52EA033548
:1004B00041F4801143F4801338D0A0FB02CE4FF0FA
:1004C0000005E1FB02E506F00042E0FB03E54FF02A
:1004D0000006E1FB03569CF0000F18BF4EF0010E22
:1004E000A4F1FF04B6F5007F64F5407404D25FEA1E
:1004F0004E0E6D4146EB060642EAC62141EA5551D1
:100500004FEAC52040EA5E504FEACE2EB4F1FD0C12
:1005100088BFBCF5E06F1ED8BEF1004F08BF5FEA90
:10052000500E50F1000041EB045170BD06F0004642
:1005300046EA010140EA020081EA0301B4EB5C04EF
:10054000C2BFD4EB0C0541EA045170BD41F48011E7
:100550004FF0000E013C00F3AB8014F1360FDEBF0C
:10056000002001F0004170BDC4F10004203C35DAE8
:100570000C341BDC04F11404C4F1200500FA05F36B
:1005800020FA04F001FA05F240EA020001F000420C
:1005900021F0004110EBD37021FA04F642EB060182
:1005A0005EEA430E08BF20EAD37070BDC4F10C04AC
:1005B000C4F1200500FA04F320FA05F001FA04F270
:1005C00040EA020001F0004110EBD37041F100015C
:1005D0005EEA430E08BF20EAD37070BDC4F1200567
:1005E00000FA05F24EEA020E20FA04F301FA05F2CF
:1005F00043EA020321FA04F001F0004121FA04F277
:1006000020EA020000EBD3705EEA430E08BF20EA46
:10061000D37070BD94F0000F0FD101F00046400080
:1006200041EB010111F4801F08BF013CF7D041EA02
:10063000060195F0000F18BF704703F00046520006
:1006400043EB030313F4801F08BF013DF7D043EAD7
:100650000603704794EA0C0F0CEA135518BF95EA8D
:100660000C0F0CD050EA410618BF52EA4306D1D114
:1006700081EA030101F000414FF0000070BD50EA33
:10068000410606BF1046194652EA430619D094EABD
:100690000C0F02D150EA013613D195EA0C0F05D1A7
:1006A00052EA03361CBF104619460AD181EA0301FB
:1006B00001F0004141F0FE4141F470014FF00000B3
:1006C00070BD41F0FE4141F4780170BD70B54FF04E
:1006D000FF0C4CF4E06C1CEA11541DBF1CEA1355CE
:1006E00094EA0C0F95EA0C0F00F0A7F8A4EB0504B0
:1006F00081EA030E52EA03354FEA013100F08880A7
:100700004FEA03334FF0805545EA131343EA12636F
:100710004FEA022245EA111545EA10654FEA002624
:100720000EF000419D4208BF964244F1FD0404F5DD
:10073000407402D25B084FEA3202B61A65EB030539
:100740005B084FEA32024FF480104FF4002CB6EBF6
:10075000020E75EB030E22BFB61A754640EA0C0076
:100760005B084FEA3202B6EB020E75EB030E22BFB6
:10077000B61A754640EA5C005B084FEA3202B6EBF7
:10078000020E75EB030E22BFB61A754640EA9C00B6
:100790005B084FEA3202B6EB020E75EB030E22BF86
:1007A000B61A754640EADC0055EA060E18D04FEA44
:1007B000051545EA16754FEA06164FEAC30343EAE4
:1007C00052734FEAC2025FEA1C1CC0D111F4801FB1
:1007D0000BD141EA00014FF000004FF0004CB6E7AA
:1007E00011F4801F04BF01430020B4F1FD0C88BF49
:1007F000BCF5E06F3FF6AFAEB5EB030C04BFB6EB54
:10080000020C5FEA500C50F1000041EB045170BD46
:100810000EF0004E4EEA113114EB5C04C2BFD4EB73
:100820000C0541EA045170BD41F480114FF0000EF7
:10083000013C90E645EA060E8DE60CEA135594EA73
:100840000C0F08BF95EA0C0F3FF43BAF94EA0C0F76
:100850000AD150EA01347FF434AF95EA0C0F7FF4EB
:1008600025AF104619462CE795EA0C0F06D152EA3F
:1008700003353FF4FDAE1046194622E750EA410623
:1008800018BF52EA43067FF4C5AE50EA41047FF434
:100890000DAF52EA43057FF4EBAE12E780F0004063
:1008A00002E000BF81F0004142001FBF5FEA410348
:1008B00092EA030F7FEA226C7FEA236C6AD04FEA48
:1008C0001262D2EB1363C1BFD2184140484041408D
:1008D000B8BF5B42192B88BF704710F0004F40F43F
:1008E000000020F07F4018BF404211F0004F41F45B
:1008F000000121F07F4118BF494292EA030F3FD027
:10090000A2F1010241FA03FC10EB0C00C3F1200339
:1009100001FA03F100F0004302D5494260EB4000C8
:10092000B0F5000F13D3B0F1807F06D340084FEA33
:10093000310102F10102FE2A51D2B1F1004F40EB28
:10094000C25008BF20F0010040EA03007047490090
:1009500040EB0000013A28BFB0F5000FEDD2B0FA2D
:1009600080FCACF1080CB2EB0C0200FA0CF0AABF50
:1009700000EBC25052421843BCBFD04018437047EE
:1009800092F0000F81F4000106BF80F400000132F4
:10099000013BB5E74FEA41037FEA226C18BF7FEACB
:1009A000236C21D092EA030F04D092F0000F08BF0D
:1009B0000846704790EA010F1CBF0020704712F0F4
:1009C0007F4F04D1400028BF40F00040704712F133
:1009D00000723CBF00F50000704700F0004343F098
:1009E000FE4040F4000070477FEA226216BF0846CE
:1009F0007FEA23630146420206BF5FEA412390EA91
:100A0000010F40F4800070474FF0000304E000BF86
:100A100010F0004348BF40425FEA000C08BF704737
:100A200043F0964301464FF000001CE050EA0102FB
:100A300008BF70474FF000030AE000BF50EA010210
:100A400008BF704711F0004302D5404261EB4101FD
:100A50005FEA010C02BF84460146002043F0B64322
:100A600008BFA3F18053A3F50003BCFA8CF2083A47
:100A7000A3EBC25310DB01FA02FC634400FA02FC50
:100A8000C2F12002BCF1004F20FA02F243EB020057
:100A900008BF20F00100704702F1200201FA02FCB9
:100AA000C2F1200250EA4C0021FA02F243EB0200AC
:100AB00008BF20EADC7070474FF0FF0C1CEAD052F0
:100AC0001EBF1CEAD15392EA0C0F93EA0C0F6FD0B1
:100AD0001A4480EA010C400218BF5FEA41211ED08F
:100AE0004FF0006343EA501043EA5111A0FB01317B
:100AF0000CF00040B1F5000F3EBF490041EAD37150
:100B00005B0040EA010062F17F02FD2A1DD8B3F1CB
:100B1000004F40EBC25008BF20F00100704790F03A
:100B2000000F0CF0004C08BF49024CEA502040EA8C
:100B300051207F3AC2BFD2F1FF0340EAC250704752
:100B400040F400004FF00003013A5DDC12F1190F90
:100B5000DCBF00F000407047C2F10002410021FA02
:100B600002F1C2F1200200FA02FC5FEA310040F11A
:100B7000000053EA4C0308BF20EADC70704792F093
:100B8000000F00F0004C02BF400010F4000F013ACB
:100B9000F9D040EA0C0093F0000F01F0004C02BFC6
:100BA000490011F4000F013BF9D041EA0C018FE735
:100BB0000CEAD15392EA0C0F18BF93EA0C0F0AD03B
:100BC00030F0004C18BF31F0004CD8D180EA010061
:100BD00000F00040704790F0000F17BF90F0004FFA
:100BE000084691F0000F91F0004F14D092EA0C0FDC
:100BF00001D142020FD193EA0C0F03D14B0218BF6F
:100C0000084608D180EA010000F0004040F0FE40B4
:100C100040F40000704740F0FE4040F44000704750
:100C20004FF0FF0C1CEAD0521EBF1CEAD15392EACF
:100C30000C0F93EA0C0F69D0A2EB030280EA010CBF
:100C400049024FEA402037D04FF0805343EA111158
:100C500043EA10130CF000408B4238BF5B0042F1B6
:100C60007D024FF4000C8B4224BF5B1A40EA0C005B
:100C7000B3EB510F24BFA3EB510340EA5C00B3EB8D
:100C8000910F24BFA3EB910340EA9C00B3EBD10F7B
:100C900024BFA3EBD10340EADC001B0118BF5FEACD
:100CA0001C1CE0D1FD2A3FF650AF8B4240EBC250F6
:100CB00008BF20F0010070470CF0004C4CEA5020B7
:100CC0007F32C2BFD2F1FF0340EAC250704740F406
:100CD00000004FF00003013A37E792F0000F00F0F8
:100CE000004C02BF400010F4000F013AF9D040EA76
:100CF0000C0093F0000F01F0004C02BF490011F40A
:100D0000000F013BF9D041EA0C0195E70CEAD15301
:100D100092EA0C0F08D142027FF47DAF93EA0C0FE8
:100D20007FF470AF084676E793EA0C0F04D14B02CC
:100D30003FF44CAF08466EE730F0004C18BF31F07E
:100D4000004CCAD130F000427FF45CAF31F0004378
:100D50007FF43CAF5FE700BF53B94AB9002908BF31
:100D600000281CBF4FF0FF314FF0FF3000F00CB8EF
:100D7000ADF1080C6DE904CE00F008F8DDF804E0F0
:100D8000DDE9022304B07047704700BF2DE9F0474A
:100D900086468C460846089E154674461946002B22
:100DA00040F0C2808542B2FA82F245D94AB1C2F11E
:100DB000200300FA02FC2EFA03F3954043EA0C0CE0
:100DC00094404FEA154EA8B2BCFBFEF8230C0EFB74
:100DD00018CC08FB00F943EA0C43994528D9EB18D5
:100DE00008F1FF3704D2994502D9A8F102072B4434
:100DF000A3EB0903A4B2B3FBFEFC0EFB1C330CFBFC
:100E000000F044EA0344A04214D92C190CF1FF333A
:100E100004D2A04202D9ACF102032C44241A43EAC2
:100E200007401EB1D440002334607360BDE8F087F2
:100E30004746DDE76346F1E792BB431B01214FEADA
:100E4000154EAFB2B3FBFEFC200C0EFB1C330CFBAB
:100E500007F840EA0343984562D9EB180CF1FF30DC
:100E600004D2984502D9ACF102002B44A3EB08034D
:100E7000A4B2B3FBFEFC0EFB1C330CFB07F744EAE9
:100E80000344A7424ED92C190CF1FF3304D2A742D8
:100E900002D9ACF102032C44E41B43EA0040C0E752
:100EA000C2F1200320FA03F1954090402EFA03F39B
:100EB00003434FEA154EAFB2B1FBFEFC0EFB1C1014
:100EC000190C0CFB07F841EA0041884504FA02F4CA
:100ED00022D969180CF1FF3004D2884502D9ACF14F
:100EE00002002944A1EB08019BB2B1FBFEFC0EFB02
:100EF0001C110CFB07F743EA01439F420ED9EB1884
:100F00000CF1FF3104D29F4202D9ACF102012B4413
:100F1000DB1B41EA004192E76046E3E76146F7E701
:100F20006046A3E76346B7E7834206D916B90021B6
:100F300008467BE7C6E900E0F9E7B3FA83F78FB923
:100F4000834201D3724508D8BEEB020460EB030371
:100F500001209C461EB9002168E73846FAE7C6E939
:100F6000004CF8E7C7F1200CBB4022FA0CF41C43FC
:100F70002EFA0CF120FA0CF3B84001434FEA144961
:100F80000EFA07F5B3FBF9F81FFA84FE09FB1830D7
:100F90000B0C08FB0EFA43EA00439A4502FA07F2EB
:100FA00040D9E31808F1FF3004D29A4502D9A8F1DC
:100FB00002002344A3EB0A0389B2B3FBF9F809FB4F
:100FC000183308FB0EFE41EA03418E452CD9611807
:100FD00008F1FF3304D28E4502D9A8F1020321445F
:100FE00043EA0040A0FB0298A1EB0E014145CE462A
:100FF000434602D306D14D4504D2B9EB020E68EB4D
:1010000004030138002EA6D0B5EB0E0261EB0301FC
:1010100001FA0CFC22FA07F34CEA0303F940C6E993
:10102000003198E74046C5E74346D9E70000000095
:101030002DE9F04F89B0AC4C204606F095FC40B944
:101040002168AA4805F0A6FB4FF0FF3009B0BDE8C3
:10105000F08F00238DF80A30D0238DF8083001235B
:10106000009302AA0DF10A037621204605F093FAB7
:1010700018B19DF808109E48E4E79DF80A10602911
:1010800001D09C48DEE74BF2E06303A8ADF80C30DA
:1010900000F048F918B19DF80C109748D2E740F2DB
:1010A000F24304A8ADF8103000F03CF910B19DF8FF
:1010B0001010F2E749F2F43305A8ADF8143000F04F
:1010C00031F910B19DF81410E7E78C498C4800F015
:1010D00041F90023CDE906330823F7240093824821
:1010E0008DF80B4006AB0DF10B02762105F053FA9B
:1010F00048B17F48214605F04DFB00214FF40040E8
:1011000006F03EFDE5E77D499DF81C209DF81B306B
:1011100008889DF81D40BDF81EC09DF818909DF8E8
:1011200019A0B1F910B0B1F90E50B1F90CE01201EB
:1011300042EA033242EA1414C0EB12124000C0EB40
:10114000D400B1F902409DF81A3060435243B1F91E
:10115000044012136243921302EBE0224FEA62084A
:101160006848A8F57A484FEAA80602607643B1F9C4
:101170000A0074136043B1F9084008FB04F46410DA
:1011800004EBE004A414C88804F5004402EB8207D1
:1011900044439CFA9CFC8037E0131FFA8CFC4FEA16
:1011A000272730D008FB05F5F6126D001B090BFB55
:1011B000065543EA0A134FEA0E4E534C0EEBA50EAA
:1011C00043EA093303EB2E33634303F1434303F54F
:1011D000A003002BB9BFB3FBF0F040005B00B3FBF2
:1011E000F0F0C3085B435C0BB1F91630B1F9145051
:1011F0005C4383086B435B1303EB2433B1F9124068
:10120000234400EB2310B1F91E3091F92250A2F5CE
:1012100096341B05B1F92020C3EB8C3304FB123349
:101220000A7F6243D2126C43A41202F50042624369
:101230009212B1F91A40097E02F50012624303F5D9
:10124000804302F500529213DB135343DA135243E7
:10125000D2114A43A3EB221424132402B4F5806F65
:1012600037DBB4F5C83FA8BF4FF4C834FFF78AF89E
:1012700019A3D3E90023FFF7FFF8804620468946EB
:10128000FFF780F8214B0022FFF7F6F804463846B6
:101290000D46FFF7B9FB1E49FFF7C2FCFFF794F8B4
:1012A0000FA3D3E90023FFF7E7F81A4B0022FEF75C
:1012B0002DFF0B460246184805F06CFA42464B4695
:1012C000164805F067FA164822462B4605F062FAE2
:1012D00013E74FF48064C9E790553B5BA802233FB6
:1012E000CDCCCCCCCCCCFC3F188100009188000048
:1012F00074880000AB880000C1880000640C0020E6
:10130000F885000010040020CBF3FFFF0000503FE1
:101310000000C84200004040DF8800000389000050
:101320001E8900001FB50223019002938DF80C3036
:1013300007489DF80C30826843F002038DF80C30AA
:1013400094687623012201A9A04704B010BD00BF14
:101350001881000070B58CB01823009305460C4628
:101360008826818800688DF80C606B4403AA05F01C
:1013700012F928B12548314605F00CFA0CB070BDC1
:1013800009230093E126A98828688DF80B6003AB38
:101390000DF10B0205F0FFF80028EBD1BDF8183075
:1013A0002380BDF81A306380BDF81C30A380BDF8DF
:1013B0001E30E380BDF820302381BDF822306381E8
:1013C000BDF82430A381BDF82630E381BDF8283074
:1013D0002382BDF82A306382BDF82C30A382BDF889
:1013E0002E30E3829DF80C302376BDF80D306383F8
:1013F0009DF80F302377BDF81030E383BDF812302D
:1014000023849DF8143084F82230B7E774880000F4
:10141000014B1B68184700BF00000020014B1860FB
:10142000704700BF0000002030B585B004460D466F
:1014300010220021684606F01BFC02238DF80230C2
:101440002A46044B01932146684604F043F805B050
:1014500030BD00BF1114000080B505460E4617468A
:10146000984603F029FB034606F0D8FDDFF81890F4
:10147000044649F80030424630463946A84754F8F9
:10148000090000F017FD00BF080000002DE9F0473B
:10149000058B04462807904611D4022905F007055C
:1014A00040F0CC80204605F082F978B10138218BDC
:1014B000042811D8DFE800F0C2106D8595000129DD
:1014C0000CBF45F0100545F02005258388F31188F1
:1014D000BFF36F8FBDE8F08701F0070AAA4500F05F
:1014E000A5800027B9463E46A368002B00F0BC80CB
:1014F00041F00801218388F31188BFF36F8FA16841
:10150000002900F0BA800D68002900F0B680D1F8FB
:101510000480334652462046C047002D76D02B68C3
:1015200029461D46F0E701F007035A1F012A1BD880
:10153000002221F00701062B276889B2C4E90022A6
:1015400009D13B4603E0628B013262831B68002BAA
:10155000F9D141F002012183204605F028F9002845
:101560007AD041F0200176E0042B0AD121F0070166
:1015700089B22183204605F01AF910B141F020010B
:101580002183218B01F0070AAA454FD00027B946D5
:10159000AAE7236921F0070141F00601062DD3F8DF
:1015A000009021832DD1B9F1000F3FD041F0080107
:1015B000218388F31188BFF36F8F3A492046C847CB
:1015C00029E021F00701236941F0040189B2042DCB
:1015D000D3F804902183E6D000273E464FF0040A5A
:1015E00082E721F00701236941F0050189B2052D49
:1015F000D3F808902183D6D000273E464FF0050A45
:1016000072E700273E464FF0060A6DE72B4687E754
:10161000B9F1000FD1D1EFF31188202383F31288A1
:10162000BFF36F8F238B23F008032383258BEA06F8
:101630002ED525F01003238305F007056669218B5D
:10164000002EBFF670AF00232768C4E9003321F0F5
:10165000070141F001012183218B01F0070AAA450E
:101660004FF000097FF440AF002F9CD041F00801FB
:10167000218388F31188BFF36F8F002FC8D03D6896
:10168000394633465246204605F0BDF82F46F4E76A
:10169000AB067FF51BAF25F02003238305F007057C
:1016A00000E700BF33680000014B03600020704773
:1016B0000086000008B5044805F06CF8BDE8084055
:1016C000024805F067B800BF378900006C89000048
:1016D000014803F0BBBC00BF0086000038B50446DB
:1016E00018B90F4B0F485B6898476168B1F5683FC0
:1016F00010D0B1F5680F0DD00B4DA9420AD011F4EE
:101700006861206807D00146084806F06BF900239D
:101710002360656038BD142206F0AAFAF9E700BF1D
:10172000040100209A8900002C5F5CA914090020A4
:1017300008B520B34368B3F5683F10D101220368B0
:10174000BFF35B8F53E8001F002903D143E800205B
:101750000028F7D1BFF35B8F0DD1002008BD094AE7
:1017600093420AD000684FF0FF324FF0FF3302F08F
:1017700073FD0028F1D00448F0E70448EEE76FF469
:10178000E040EBE72C5F5CA9E98FFFFFEA8FFFFFEA
:1017900008B5D8B14368B3F5683F10D1002203689B
:1017A000BFF35B8F53E8001F012903D143E80020FA
:1017B0000028F7D1BFF35B8F0BD1002008BD074A8B
:1017C000934208D0006802F0BFFDF6E76FF4E040F6
:1017D000F4E70348F2E70348F0E700BF2C5F5CA999
:1017E000E98FFFFFEA8FFFFF10B5044618B91D4BC4
:1017F0001D485B6898476368B3F5683F2FD0B3F521
:10180000680F2CD0194A934219D1236803BB18489A
:101810004FF0FF324FF0FF33214602F0EFFC08B9E2
:1018200023681BB90F4B13485B6898472068142244
:10183000002106F01DFA4FF46863636008E0B3F519
:10184000683F0DD83A2B03D040F6BA629342DED1FE
:10185000206806F012F9636843F03A03636010BD34
:10186000054AF3E7040100209A8900002C5F5CA977
:1018700014090020C08900003A00003A08B5064962
:1018800006484023142206F09FF8BDE808400449AA
:10189000044803F04DBC00BF1404002014090020CC
:1018A000088600001C86000008B50348034A002192
:1018B000121A05F055F808BDC0010020A00C002048
:1018C0000748084A084908B5121A05F04BF80748B6
:1018D000074A0849BDE80840121A05F043B800BF9E
:1018E00000000020C0010020A08E000000000020A9
:1018F00000000020A08E000038B505460C4699B1C6
:10190000D1E901230F48096804F044FFD4E9042316
:10191000E1680D4804F03EFFE1690C4804F03AFF2D
:10192000A1690B4804F036FF012D05D1EFF30581C5
:101930000848103904F02EFF21462846BDE83840FB
:1019400002F018BBED8900001D8A00004D8A0000DE
:101950005D8A00008C8A000030BFFFF7FDBF00BF2A
:101960002DE9F0410B4EDFF8308006EB0807CC1B69
:10197000054632460949204606F06CF9A019424650
:101980000021083C06F074F9C5F8A44007F10800EE
:10199000BDE8F0810000000004000000608300004A
:1019A000054B5A699B689A421FBF044A536843F02B
:1019B00080535360704700BF5C0A002000ED00E0D8
:1019C0002DE9F843324D804632488946174604F0E7
:1019D000E1FEAB6ADE0622D52F4804F0DBFE1124BF
:1019E000AB6A1D0703D52D4804F0D4FE1224284D00
:1019F000AB6A980715D52A4804F0CCFE6E6BAB6A2B
:101A0000190642D52748314604F0C4FEB9F1000F4B
:101A100003D0AB6A23F08003AB62132403E01024ED
:101A2000DEE76FF015061A4DAB6ADA0703D51E48DC
:101A300004F0B0FE1424AB6A9B0603D51B4804F0E7
:101A4000A9FE1524124B9A6AD50602D49A6A900709
:101A50000AD55B68190507D54146304600F00AFBF8
:101A600010B180F309880224094B9A6A920642BF9A
:101A70005A6A22F400525A629A6A42F0FF029A624B
:101A800000233B702046BDE8F8836FF01506C4E7DD
:101A900000ED00E0A08A0000B78A0000EB8A000099
:101AA000FF8A0000188B00002F8B00004F8B000076
:101AB00010B51D4C1D4804F06DFEA36A990130D588
:101AC0001B4804F067FE1E20A36ADA0103D51948FB
:101AD00004F060FE1F20144CA36A1B0303D51648B4
:101AE00004F058FE2120A36A590303D5134804F0DB
:101AF00051FE22200C4CA36A9A0303D5104804F02F
:101B000049FE2320A36ADB0303D50E4804F042FEFE
:101B10002420054A936A6FEA03436FEA13439362F2
:101B200010BD1D20D0E700BF00ED00E07F8B00005E
:101B3000988B0000AC8B0000C78B0000E68B000088
:101B40000C8C0000278C000070B5244C06462448FD
:101B50000D4604F01FFEA36AD90435D5214804F0D0
:101B600019FE1720A36A1A0503D51F4804F012FEB8
:101B700018201A4CA36A9B050FD51C4804F00AFED6
:101B8000A16BA36A180407D5194804F003FE1EB11F
:101B9000A36A23F40043A3621920104CA36A5905D9
:101BA00003D5144804F0F6FD1A20A36ADA050DD512
:101BB000114804F0EFFD1B20084A936A43F47F4369
:101BC000936200232B7070BD1620CBE7A36A9B04A1
:101BD000F2D50A4804F0DEFD1C20EDE700ED00E040
:101BE000538C00006A8C0000EB8A00007C8C0000A3
:101BF000968C0000AC8C0000C88C00004F8B00005D
:101C00002DE9F0415B4B5F688AB00446C7F30806D4
:101C1000002585F31188BFF36F8F02F07F43B3F186
:101C20007F4F06D102F00C03082B13D1524804F069
:101C3000B1FD00252C464FF00008F31E8DF80780FB
:101C4000092B00F28680DFE803F00A7A7E7684842E
:101C50008484848210074CBF0C460125EBE747487B
:101C6000444E04F097FD8DF80780F36A9A0704D577
:101C7000434804F08FFD002330E0F36A002B01DAC3
:101C80004048F6E7F36A5B00F5D53F4804F082FD73
:101C90007369A26943F480737361BFF34F8FBFF31D
:101CA0006F8F736932F8022C23F480737361BFF372
:101CB0004F8FBFF36F8F4DF602739A4209D0B36A0C
:101CC000DBB253B30DF1070201212046FFF778FE86
:101CD00033E021682D4804F05DFD23689DF807205E
:101CE000C2B902AE04F1200720686168324603C21F
:101CF0000834BC421646F7D1099AB5B3C2F30801BD
:101D000021B96FEA52226FEA4222099202A91846CB
:101D1000FFF7F2FD0AB0BDE8F081B36A13F47F4F1C
:101D200005D00DF107010120FFF70EFF05E0B36AB2
:101D3000B3F5803F9FD3FFF7BBFE0346CEE70DF11F
:101D400007020021C1E70DF107010020ECE7104870
:101D50008FE7104B1049114817F4F87FA6F11002D5
:101D600018BF194604F016FD85E722F4FF7222F031
:101D70000102CAE700ED00E00F8D00003B8D00007E
:101D8000538D0000758D0000848D0000A48D00002F
:101D9000C18D0000F68C0000E18C0000E68D000093
:101DA000044B5A6942F010025A615A6922F0080243
:101DB0005A61704700ED00E0EFF30880EFF309810E
:101DC00001B57246FFF71CFF01BD00BF002080F384
:101DD0001488BFF36F8F114880F3088800201049E2
:101DE000087001F015FA00200E490860BFF34F8F0C
:101DF00000F02EF8202080F311880B484FF4046186
:101E0000401880F30988EFF314800221084380F31F
:101E10001488BFF36F8F00F0FDF80000801A0020D7
:101E20009B0C002094ED00E0C00C00200749D1F885
:101E300090200023C2F307221846934200DB70472C
:101E4000C1F89830C1F8A0000133F6E700ED00E0DA
:101E500008B572B6002383F31388FFF7E7FF144B2E
:101E60004FF0FF32C3F88020C3F88420C3F88820E5
:101E7000C3F88C20C3F89020C3F89420C3F89820AE
:101E8000C3F89C20C3F88021C3F88421C3F88821BB
:101E9000C3F88C21C3F89021C3F89421C3F898218A
:101EA000C3F89C2162B6BFF34F8FBFF36F8F08BD9D
:101EB00000E100E0084B9B6883420BD1EFF3058300
:101EC00043B1064B5A6842F080525A605A6A22F473
:101ED00000425A6202F0F6BD5C0A002000ED00E00C
:101EE00015498A684FF030001044EFF3098C80E800
:101EF000F01F202080F31288BFF36F8F0F4F4FF039
:101F000000664A698A603E60D2F8A4000C4C2060EA
:101F1000D2F8A8000023C2F8A83080F3118804B5D5
:101F2000104600F00FF9BDE8044002F1300090E8DF
:101F3000F01F8CF3098870475C0A002004ED00E074
:101F4000300900201EF0040F0CBFEFF30880EFF300
:101F50000980816911F8021C0229FFD001B572467F
:101F600004F002FD01BD00BF40B2002807DB044AB7
:101F70004109012300F01F00834042F821307047DF
:101F800000E100E040B200280CDB4309064900F004
:101F90001F0020330122824041F82320BFF34F8FDE
:101FA000BFF36F8F704700BF00E100E0054B4209AF
:101FB00000F01F0053F82220012303FA00F0104024
:101FC000704700BF00E100E040B20028A8BF00F168
:101FD000604001F10101B8BF064B4FEA4111ACBFAF
:101FE00000F5614000F00F00C9B2B4BF195480F889
:101FF0000013704714ED00E0044B054A23F07F0303
:102000009360BFF34F8FBFF36F8F704700000000E6
:1020100000ED00E008B5FFF7EFFF074AD2F888307F
:1020200023F47003C2F88830FFF73EFCFFF748FC4A
:1020300000F05EF802F06AF800ED00E042F8203CA3
:10204000009B42F81C3C0A49019B42F8183C029B49
:1020500042F8143C21F001014FF0807342F8043C37
:1020600042F8081C0023203A0265C0F8A8307047E7
:10207000591400000A4A0346906878B113F1160F0C
:10208000D0F8940005D0A0F140029A4205D88342CE
:1020900003D2814228BF002070470020704700BF54
:1020A0005C0A002008B515460C4A0D4B9060D0F82C
:1020B000A4201A600E4600F045F82C4686F30988E5
:1020C0000020044B98472046002100220023024CA8
:1020D000204700008D690000591400005C0A0020B0
:1020E00030090020014B10221A61704700ED00E01A
:1020F000044800232021C2180133302B82F800133A
:10210000F9D1704700E100E008B5EFF30583064A16
:10211000103B02EBC30152F8330049688847BDE821
:102120000840FFF73DBC00BF38810000024B034A66
:102130000348012100F078B80000042000000020CE
:102140002C860000D0F89420054B403A1A60054ACE
:102150004021C3E901121846012100F06FB800BF09
:102160003409002000000B15084AC2F898000B68DB
:1021700023F01F03034343F01003C2F89C308B6825
:1021800043F00103C2F8A030704700BF00ED00E04B
:102190002DE9F043DFF8608085B00E461F46044607
:1021A0004FF00009B14523DA6068D8B13FB1411E54
:1021B00008421BD11F2819D92368194216D1236858
:1021C000019304F006FCA36803430393D8F89050EE
:1021D000C5F30725D0B2013DA84207D801A9FFF7F2
:1021E000C3FF421C09F101090C34DBE76FF0150253
:1021F000104605B0BDE8F08300ED00E0044B052279
:10220000C3F89420BFF34F8FBFF36F8F704700BFA9
:1022100000ED00E0BFF35F8F024B0022C3F8942073
:10222000704700BF00ED00E010B5034C0123227899
:10223000FFF7AEFF207010BD880C002008B50B4AD8
:1022400000231278FFF7A4FF10F1160F07D0084AF9
:102250000021D2F89030C3F30723984200DB08BD79
:10226000C2F89800C2F8A0100130F2E7880C0020F4
:1022700000ED00E02DE9F043534B544CD3F890307F
:102280002568C3F307239D4285B000F29A80FFF7CB
:10229000C1FF00200C2685421AD14D4C4D4F2570B0
:1022A0006846FFF701FADFF82081DFF82C91064637
:1022B0000025AE4213D1237843490020D1F8902065
:1022C000C2F30722934276DBFFF798FF002042E03B
:1022D000616806FB0011FFF747FF0130DBE700985C
:1022E00000EB05114FEA051CCB683B40B3F5000F2E
:1022F00048D00AD8B3F5001F30D0B3F5800F36D0E0
:10230000B3F5801F10D00135D3E7B3F1807F42D001
:10231000B3F1007FF7D150F80C3088684A6804F0B8
:1023200058FB40F4802009E050F80C3088684A6877
:1023300004F04FFB40F0885040F43020CDE90123F9
:102340000390D8F890302078C3F30723013B9842DC
:102350002AD96FF0150005B0BDE8F08350F80C30B5
:1023600088684A6804F035FB40EA0900E6E750F85F
:102370000C3088684A6804F02CFB40F0C06040F4E0
:102380000030DBE750F80C3088684A6804F021FB25
:1023900040F08270D2E750F80C3088684A6804F048
:1023A00018FB40F08870C9E701A9FFF7DDFE23782C
:1023B00001332370A7E7C1F89830C1F8A0000133BA
:1023C0007CE74FF0FF30C6E700ED00E03886000004
:1023D000880C00200000F0FF0000081108B5024B37
:1023E0001B689847002008BD40090020034B044AA1
:1023F0001860937843F002039370704740090020FF
:102400002400002008B50649064821F00701C1F163
:10241000005202F5802204F063F9002008BD00BFDD
:10242000C71A0020440900200E4A0123C2F8403593
:102430004FF080424FF08051C2F87835D1F830012A
:10244000082808D1D1F83411052904D80648415C80
:1024500009B1C2F838364FF080430122C3F8802515
:102460000020704700E00140098E000048B1054B94
:10247000054A1B68B3FBF2F35843044B43F00103D6
:1024800018477047F000002040420F0060830000B2
:1024900008B50448044A3F23C0E9002300F096FF32
:1024A000002008BD50090020FFFF0F00084B70B549
:1024B000C31A0D4607499B1004465943064840225B
:1024C00004F0A5FA2B4601462046BDE870401847A7
:1024D0006C090020B76DDBB69880000073B50C4C1A
:1024E0000C4A4023041B00930D460B460A49A410D6
:1024F00061430646094804F0B6FA011E05DA304683
:102500002B4602B0BDE87040184702B070BD00BF56
:102510006C090020D16A0000B76DDBB6988000001E
:102520000022F8B5012105461046FFF74DFD104881
:1025300000F074FF0446B8B900F090FF2F690D4910
:10254000384604F083F9031E09DB01263E642D6939
:10255000084905F11C0004F079F9031E02DA1C4653
:102560002046F8BDEE64FBE76FF00404F8E700BF17
:10257000A5260000588600001FB500220123CDE9E2
:102580000223094ACDF800D06B46CDF804D004F000
:1025900098FA002805DB4FF480420023684601F0DA
:1025A00057FF05B05DF804FBE36A000010B5EFF3D8
:1025B0001184202383F31288BFF36F8F074A1368B7
:1025C00023F00201DB07116002D4012004F0B8FD02
:1025D00084F31188BFF36F8F10BD00BFBC090020CA
:1025E00030B4104B0C2202FB003301460020D3E92B
:1025F0000E529863EFF31180202484F31288BFF306
:102600006F8F1C6C04F0C00444F002041C6480F35F
:102610001188BFF36F8F1DB12B46034830BC18479C
:1026200030BC70476C0900209880000010B4EFF3B4
:102630001182202383F31288BFF36F8F174801683C
:1026400041F002040460C80707D482F31188BFF385
:102650006F8F012010BC04F06BBD4FF08041D1F8AA
:102660000C04D1F80C14C907EFD5EFF3118083F3F4
:102670001288BFF36F8F0A490B6C03F0C00343F05D
:1026800002030B6480F31188BFF36F8F82F311880C
:10269000BFF36F8F002010BCFFF7A2BFBC09002062
:1026A0006C09002010B1012804D07047034B1B6C4B
:1026B0005B0701D1FFF794BF704700BF6C09002092
:1026C0002DE9F0413849BFF35B8F0746012251E8FD
:1026D000003F41E800200028F9D1BFF35B8F33B9F8
:1026E000324933484B60CB608A6004F0C2F87B1EED
:1026F000012B2BD8012F07D14FF08043D3F81C3486
:1027000003F00303012B21D005F0CAF90546F8B9FF
:10271000284B1B78E3B14FF080430222C3F8082313
:102720000646DFF894804FF08044D4F81824D4F89B
:102730001834D20315D503F00303012B01D0012F68
:102740000FD155B386F31188BFF36F8FBDE8F081C9
:10275000EFF31186202383F31288BFF36F8F0125D7
:10276000DFE7ADB1304604F025F9D4F81835002B79
:10277000DBD1D4F80421002AD7D0C4F80431D4F82E
:1027800004310123C4F81835C8F88031A360CCE7C0
:102790000021212005F0F4F9E7E74FF08043022201
:1027A000C3F80423D2E700BF6809002058090020BD
:1027B000880900209B0C002000E100E008B50748D4
:1027C00005F0D2F838B10648FFF710FE0448FEF7CE
:1027D00025FE002008BD6FF01200FBE7F880000026
:1027E000E52700000A2838B5074D044604D1AB6838
:1027F0000D215B6828469847AB6803485B68E1B2E7
:102800009847204638BD00BFF8800000F0B5456805
:102810001646A8682A7C01F01F0487B044EA4214D7
:10282000002869D0B6F5001F04D1214604F07EFFD0
:10283000002052E001AA0020B6F5800F0190506000
:1028400037D1B3F1007F14BF052304238DF8043082
:102850000023CDE904230393EB6823FA01F111F07F
:1028600001010DF103073AD1B6F1A07F37D104F091
:102870001F03620903F5E07326D0012A3FD1214AE4
:1028800052F82330DB072AD4A8683A46214604F0E0
:10289000C3FE16301BD00297A86803AA214604F095
:1028A00087FD002819DBA8680122214604F0EBFE11
:1028B000BEE7B3F1C06F05D0B3F1007F14BF0123B1
:1028C0000223C3E70323C1E74FF0A042D8E7A8687B
:1028D000394600F075FF0028DDDA07B0F0BDA868C2
:1028E0003A46214604F098FE0028D5D19DF8031001
:1028F000A86800F05FFFCFE76FF08500EDE751F8C3
:102900002330FFDE00030050420970B5034602D0B9
:10291000012A17D070BD0D4E326951680029F9D0D7
:1029200003F01F0301250C689D400029F2D08A683E
:102930002A4002D04B68304698472CB12368214684
:102940001C46F2E7024EE7E72346F8E7D88000008E
:10295000B880000038B54568A86890B104F08BFED7
:10296000014670B9A86804F06AFE044658B90246E8
:102970000649A86804F04DFE224605210620FFF70F
:1029800023FB002038BD6FF00400FBE7092900009D
:102990002DE9F043476840F20636D0063B7C87B00D
:1029A00002EA060654BFC2F3401C4FF0030C01F0CC
:1029B0001F05B6F5837F144645EA43158DF803C01D
:1029C00045D00DD8062E16D005D8A6B1022E40D07F
:1029D0006FF0150038E0B6F5807FF9D101260AE0E6
:1029E00040F20222964236D0B6F5407F35D0B6F599
:1029F000007FEDD102260123220303FA01F12ED537
:102A00007B68C3F80815B86890BB05F01F036D0913
:102A10002BD0012D75D13D4A02EB830284F4803323
:102A2000D2F80017C3F30043C4F3404444EA43041C
:102A300021F4E16144EA8C0421F0070144EA062311
:102A40000B43C2F80037002007B0BDE8F08307262B
:102A5000D1E70426CFE70526CDE70326CBE76303BE
:102A600044BF7B68C3F80C15CDE74FF0A042D3E715
:102A70000DF10202294604F0CFFD14F4403F8046D8
:102A80000CD1B868294604F0FCFDB8F1000FDAD18A
:102A90009DF80210B86800F08DFED4E74FF00009F1
:102AA00001ABCDE90199CDE90439CDF80C90B868B6
:102AB00003AA294604F07CFC4845C4DB14F4003327
:102AC00014D084F480349DF803308DF80E30C4F3B4
:102AD00000448DF80C608DF80D40B8684B4603AA91
:102AE000294604F01DFD0028CFDAACE7CDE9043318
:102AF0000DF103030393B86803AA294604F058FCB8
:102B0000F1E703F5E07350F82330FFDE00030050D7
:102B1000044A054B9362054A1A60012100220320F2
:102B2000FFF752BAC4000020D8090020003000404E
:102B3000036803F01F025B09026004D0012B034805
:102B400018BF002070474FF0A040704700030050AE
:102B50002DE9F04FDFF89491DFF894A185B0154688
:102B6000834600EB810140F2FF18594503D1002054
:102B700005B0BDE8F08FDBF800305E04C3F3C3227C
:102B8000C3F3080400F1AC801B0E19F80270444531
:102B900008BF4FF0FF34222B00F2A580DFE803F0DE
:102BA00012191F22252B22A3A3A3A33B68A3A3A32F
:102BB000A3A3A3A3A3A36B818487A3A3A38A9194B4
:102BC000979A9D00C5F80C45601C5ED10BF1040B73
:102BD000CBE7C5F81445621CF8D000265FE0C5F8C5
:102BE0000845F1E7C5F81045F5E7631CC5F8084549
:102BF000ECD0002604E0661CC5F80C45E6D00126A2
:102C000003A80394FFF794FF039B012202FA03F346
:102C1000C0F80C3508E0C5F80845002FDBD1631C6F
:102C2000D4D0002632460627DBF80030019303F4A7
:102C30000040002818BF002203A8009218BF0126F8
:102C40000394FFF775FF039C019B009A00EB84003F
:102C5000C3F3412CD0F800473B0243EA8C031343F3
:102C600004EA0A04234343EA4603C0F80037ADE709
:102C7000C5F80C45D1E7C5F86045601CDBF80030AD
:102C8000A4D0C3F30043002BB9D003A80394FFF7EB
:102C90004FFF039B012606FA03F3C0F808353246BE
:102CA000C2E7C5F86445E8E7C5F86845E5E7C5F853
:102CB0006C45E2E7C5F82445621C87D00022012656
:102CC000B2E7C5F828457FE7C5F83045F4E7C5F811
:102CD0003445F1E7C5F83845EEE7C5F83C4573E7FC
:102CE0006FF0150044E76FF0850041E7478E000064
:102CF000F0F8FCFF2DE9F041044647680D4604F06A
:102D0000CFFE4FF0200888B9264B1B7873B164269C
:102D1000606804F0E5F8F0B9012004F0B6F9013E6E
:102D2000F6D10021212004F02BFFF0E7EFF311860C
:102D3000314688F31288BFF36F8F606804F0D0F8D3
:102D4000A8B986F31188BFF36F8FEFE786F3118878
:102D5000BFF36F8FE5E7EFF31186314688F31288F2
:102D6000BFF36F8F606804F0BBF80028EED0BB693A
:102D70001D706368BA691B680020C3F844250122EE
:102D8000C3F84825C3F82001D3F82041C3F85801FF
:102D9000D3F858019A6081F31188BFF36F8FBDE8B3
:102DA000F08100BF9B0C002070B5012383400E4AC8
:102DB000BFF35B8FDC4352E8001F01EA040542E8E1
:102DC0000056002EF7D1BFF35B8F4FF48032824064
:102DD0000648C0F80823BFF35F8FBFF36F8F0B4225
:102DE00014BF0120002070BD380A002000100140EF
:102DF00070B40E49D1E90034D01AC31844F100046C
:102E000022F07F46C1E90034A6F50013B3F5400F68
:102E100009D2074B1B681A0A1B069C19054B42F185
:102E20000005C3E9004570BC02F050B8D001002095
:102E30003C0A0020D801002011B3BFF35B8F0123AF
:102E4000104A834052E800CF4CEA030C42E800C12C
:102E50000029F7D1BFF35B8F0B4A4FF480338340D7
:102E6000C2F80433094BBFF35B8F1B68BFF35B8F62
:102E7000C340DB0742BF064B4FF40032C3F80021CA
:102E8000704700BF380A002000100140340A0020BB
:102E900000E100E00D4B1868010A0006BFF35F8FE8
:102EA0000B4BD3F80435181841F10001B3F5801F1E
:102EB0000AD2084BD3E90023904271EB030303D2FB
:102EC00010F1807041F10001704700BF3C0A002002
:102ED00000100140D80100202DE9F04F85B01646C2
:102EE0001F469DF840A00446FFF75EFF0190FFF7E4
:102EF000D1FFB04271EB070354D23E4B301A67EB5F
:102F00000101984271F100014FD23B4B03EB0413D6
:102F1000D3E902239F4208BF96425ED037494FF45F
:102F2000803804F1500508FA04F8AD00C1F8488370
:102F30002046ADB204F08FF826F07F4B05F18045B6
:102F400004F5A87305F58835DC464FF003090293B4
:102F5000029A2CF07F4341F82230C1F84483D1F823
:102F60000435274A6FF00200C01A604420F07F4009
:102F7000904232D9286868B1D1F804350393A3EBA5
:102F80000B0020F07F40B0F5000F26D9204604F05A
:102F900062F8039BBAF1000F07D109EB030C09F1AA
:102FA0000109D5E7BAF1000F09D06FF015052046E9
:102FB0000199FFF741FF284605B0BDE8F08F0123D6
:102FC000104ABFF35B8FA34052E8000F184342E85A
:102FD00000010029F8D1BFF35B8F07490E98230148
:102FE00001EB0412C8500F9B5360C2E90267002531
:102FF000DDE700BF01008000C0010020001001409B
:10300000FDFF7F00340A00207FB51C4C1C4BC4F828
:103010000833C4F848331B4B00254FF0FF304FF006
:10302000FF31C4F80855C3E902014FF48033C4F8F6
:103030000433154B02264FF400320121C4F8046317
:103040001120C3F880212A46FEF7BEFF1120FEF7AB
:103050008BFF0E4A0123A360236013600C4B0D4AC3
:103060000093CDE9015500232846FFF735FF304690
:10307000FFF726FB284604B070BD00BF00100140DA
:1030800003000F00C001002000E100E0380A00202A
:10309000F12D0000FFFF7F002DE9F7432F4CD4F8FE
:1030A000043399070BD5D4F8043143B12C4A0023DB
:1030B000C4F80431D4F80431136801331360D4F830
:1030C0000433DA0329D5BFF35B8F264B53E8002F77
:1030D00022F0010143E800100028F7D1BFF35B8F15
:1030E000D30702D4D4F84031BBB10025C4F8405115
:1030F000D4F84031FFF7CEFEEFF31182202383F3A3
:103100001288BFF36F8F184BD3E90267B042B94101
:1031100006D282F31188BFF36F8F03B0BDE8F0834E
:103120004FF0FF384FF0FF39C3E90289D3E90010AF
:103130001D604FF48033C4F84833C4F84051D4F8CC
:10314000403182F31188BFF36F8F0029E5D00090E2
:1031500032463B4628468847DFE700BF0010014063
:103160003C0A0020340A0020C001002030B5431C76
:10317000124C85B005D08442A8BF0446012CB8BFCC
:103180000124FFF787FE0E4B0C4DD3E90013401AC4
:10319000B0F5000F10D22218AA4228BF2A465218B2
:1031A0004FF0000007490091CDE9010043F1000311
:1031B000FFF792FE05B030BD2A46F0E7FFFF7F0023
:1031C000D0010020F12D000008B5FFF763FE024B8F
:1031D0001B68C01A08BD00BFD00100204FF080530B
:1031E000D3F83021082A06D1D3F83431052B02D880
:1031F000024AD05C70470020704700BF638E000019
:10320000024AD2F80034002BFBD0704700E00140A6
:1032100010B54FF08053D3F83021082A4ED14FF02B
:1032200080420021C2F80C11C2F81011C2F8381502
:1032300002F54042D3F80414C2F82015D3F808145C
:10324000C2F82415D3F80C14C2F82815D3F81014BA
:10325000C2F82C15D3F81414C2F83015D3F818148A
:10326000C2F83415D3F81C14C2F84015D3F8201452
:10327000C2F84415D3F82414C2F84815D3F828141A
:10328000C2F84C15D3F82C14C2F85015D3F83014EA
:10329000C2F85415D3F83414C2F86015D3F83814B2
:1032A000C2F86415D3F83C14C2F86815D3F840147A
:1032B000C2F86C15D3F84434C2F87035FFF78EFFAE
:1032C00018B13A4B3A4AC3F88C26FFF787FF18B17A
:1032D000384BFB22C3F81825FFF780FF70B14FF081
:1032E00080414FF08053D1F8E42ED3F8583222F0C9
:1032F0000F0203F00F031343C1F8E43EFFF76EFF24
:1033000020B12D4B4FF40072C3F840264FF080538C
:10331000D3F83031082B1AD14FF08043D3F8002472
:10332000D20744BF6FF00102C3F800244FF080536E
:10333000D3F83431052B02D8204AD35C3BB14FF08F
:103340001023D3F808224FF08043C3F858254FF0DC
:103350001023D3F80022002A03DBD3F80432002B19
:1033600022DA174901234FF01020C1F80435122446
:10337000FFF746FFC0F80042FFF742FFC0F80442E3
:10338000FFF73EFF0023C1F80435FFF739FFBFF315
:103390004F8F0C490C4BCA6802F4E0621343CB60B8
:1033A000BFF34F8F00BFFDE710BD00BF00500040CE
:1033B0004881030000F00040009002405D8E000054
:1033C00000E0014000ED00E00400FA05014B186048
:1033D000704700BF400A002010B5054B186814461E
:1033E00003F055FE0028A4BF2070002010BD00BFD0
:1033F000400A0020024A01238340C2F80435704786
:1034000000F00140014B00201B681847440A0020CF
:10341000014B1B68184700BF440A002010B50C4C34
:10342000237993B9012323710A4B2060002818BF28
:10343000184600F05BF850B923680748002BBDE838
:10344000104008BF184600F0A1B86FF0770010BD1B
:10345000440A0020053400001134000008B5064B72
:103460001B683BB10020FEF7A1FD18B9BDE808407C
:10347000FEF77ABD08BD00BF440A00204FF080531C
:10348000D3F83021082A06D1D3F83431052B02D8DD
:10349000024AD05C70470020704700BF698E000070
:1034A00038B54FF080440123C4F80833636000232B
:1034B000C4F80031D4F8003142F21075D4F80C246D
:1034C000D4F80C34D20307D5DB0705D5012003F06F
:1034D000DCFD013DF2D138BDFFF7D0FF0028FAD066
:1034E000014B00225A71F6E74C0A002010B508493A
:1034F0000C794CB9012308600B71FFF7BFFF08B9C5
:10350000002010BD4C71FBE76FF07700F9E700BFBA
:103510004C0A00204FF080430022C3F80021D3F86A
:103520000021094901221A60096811B1C3F8042376
:103530007047D3F80021002AFBD00022C3F80021F5
:10354000D3F80031704700BF4C0A002010B54FF08F
:103550008043D3F80423D20715D5D3F8002192B1C4
:103560000022C3F800210121D3F80021C3F8081379
:10357000FFF784FF044B10B15A7922B95971BDE8A5
:1035800010401B68184710BD4C0A0020074A1379E9
:1035900043B90121106011714FF080421846C2F802
:1035A000183570476FF07700704700BF540A00204D
:1035B00010B54FF080431D4CD3F81814D3F81824DD
:1035C00011F4803F19D002F00302012A03D00AB19E
:1035D00003F0C7FD00224FF08043C3F818250022F6
:1035E000C3F80421D3F8042101229A60226872B939
:1035F000D3F80421002AFBD011E0D3F81424D1071A
:10360000E8D5D3F81C249207E2D422681AB102222A
:10361000C3F8042310BDD3F80421002AFBD00022F4
:10362000C3F80421D3F80431F4E700BF540A0020A2
:10363000F8B54FF08043194FD3F80443012504F047
:103640001A04002604B9F8BDB4FA84F0C0F11F00D2
:10365000830003F580739BB203F1804305FA00F207
:10366000196824EA02040029ECD01E601B684FF0A0
:1036700080430128C3F808230CD1D3F81824D3F8C9
:103680001824920706D10222C3F81805C3F80423B0
:103690009860D7E73B68C0B29847D3E7540A002048
:1036A000036803F01F025B09026004D0012B03488A
:1036B00018BF002070474FF0A04070470003005033
:1036C000034A430900F01F00D35C1844C0B270479E
:1036D0006F8E0000034611F0010030B5CCB213D15B
:1036E000A207C4F3400020D5124AD2F82005586042
:1036F0004FF08053C2F82005D3F83031082B15D095
:10370000003818BF012010E04FF0A0414FF0805565
:10371000D1F820251A60C1F82025D5F83051082DA0
:1037200008BFD1F82015002ADAD030BDD2F82035F4
:10373000E6E700BF00030050F7B504460846FFF770
:10374000BFFF06B204EB46060D46B38ADB072BD556
:10375000204603F00AFE2946204603F075FD58B1C5
:10376000204603F087FD276800B207EB80030022A4
:10377000C3F81025C3F810252946204603F0A3FD01
:103780000021B18201A80195FFF78AFF019B00EBA0
:103790008300074BD0F80027134043F00203C0F822
:1037A0000037084603B0F0BD6FF01500FAE700BF20
:1037B000F0F8FCFF014803F088BC00BFF4000020D3
:1037C00010B504480C4603F062FC0028A4BF20702A
:1037D000002010BDF40000202DE9F04F804689B094
:1037E00058F804ABDAF80413C9B28346082241F052
:1037F0000041504603F091FD051E2BDA0023032102
:1038000006A8CDE90633FFF765FF644B01930DF180
:1038100018090023019A009312F8013B60490192B4
:10382000DA0803F007038A5C22FA03F3DA071AD4F2
:10383000009B09F10409A3B14FF00041002250465A
:1038400003F06BFD032106A8FFF744FF0028DCD13D
:1038500025F000450124002D40F08A8009B0BDE824
:10386000F08F0123D6E7009B4E4A13440293D9F808
:1038700000100029DCD0029B91FAA1F11C78B1FA6A
:1038800081F141EA44142046FFF71AFF0BEB400098
:103890000594878AC808BB0819F80020039301F033
:1038A0000701012303FA01F122EA010209F80020CD
:1038B00005A8FFF7F5FE059A039B02F5E072C7F332
:1038C000820650F822205B073746C2F3014233D507
:1038D000D6B240463A46214603F0D6FC05A80594E8
:1038E000FFF7DEFE059B03F5E07350F82330C3F3CA
:1038F00001439E4207D10021204603F096FC314649
:10390000204603F092FC05A80594FFF7C9FE059B2D
:10391000012202FA03F3C0F820354FF08053D3F8A8
:103920003031082B01BFD0F82035D0F82035D0F841
:103930002035D0F820359AE7022A0DD10321204600
:1039400003F073FC06F00503012BDCD13A46214657
:10395000404603F099FCD6E702212046039203F08B
:1039600064FC032EF2D0039A032ACCD1022EECE79A
:1039700095FAA5F3B3FA83F304FA03F225EA0205F4
:1039800003F5A2720BEB43035AF82220B3F87C1024
:10399000C2F30142404603F077FC5CE77F8E0000F3
:1039A000288700007F8E000030B500F01F0440091A
:1039B00011D0012812D10C4800EB84001B02D0F872
:1039C00000570A4C43EA82022C4042EA410121435B
:1039D000C0F8001730BD4FF0A040EDE704F5E074EB
:1039E000002353F82430FFDE00030050F0F8FCFF02
:1039F0000023C3600368114AC3F80823D3F80022E8
:103A000022F4BC52C3F800224FF08052D2F8301199
:103A1000082909D1D2F83421052A05D808498A5C39
:103A200012B10922C3F800250022C3F800250123A2
:103A300080F8263080F82820704700BF02029C01E1
:103A4000818E00002DE9F84F002380F827304B6865
:103A5000046805460E46174633B1CB6803F0604351
:103A6000B3F1005F40F049813378023B012B06D867
:103A7000336903F06043B3F1005F40F03E81A04B37
:103A8000C4F8083395F8282002F0FF033AB1EB6838
:103A9000C4F804336FF00F084046BDE8F88F17F004
:103AA000140F0CBF0122002285F82820327885F8F7
:103AB0002420727885F82520F2682A6172686A618C
:103AC0003269AA61B268EA61C7F3001285F8292059
:103AD0002F627278C4F88825C4F86031D4F8602168
:103AE000C4F84831D4F84821C4F82431D4F824214A
:103AF000C4F80431D4F8043117F0010318BF0123CE
:103B0000C4F8503517F0020318BF0123C4F840353C
:103B10003378032B00F28180DFE803F05E764A02FF
:103B20004FF48073C4F80032D5E90423C4F8442567
:103B3000C4F848350123A3604FF48011204603F0F8
:103B40004BFE0028F8D1D5E90623C4F84425C4F873
:103B500048354FF48023EB604FF0000817F0080958
:103B60006A680FD13378032B0CD0012B6DD1236001
:103B7000002A55D072686B6822B9002B00F09B8038
:103B8000012363616B68002B00F09580780744BFC8
:103B90000023EB6079065EBFEB6843F00203EB6045
:103BA000EB6843F40073EB60EB68C4F8043373E72D
:103BB000D5E90423C4F84425C4F84835D5E90623DB
:103BC000C4F83425C4F838354FF48453C4F80032AF
:103BD000012323620223BEE7D5E90423B906C4F812
:103BE0004425C4F848354BBF4FF480734FF400733D
:103BF000C4F80032C4F800324CBF4FF480230223D3
:103C0000EB6001232362A7E7D5E90423C4F8342538
:103C1000C4F838354FF48053D8E76FF015089DE7A6
:103C20006A6902B96361DFF8DCA0DFF8DC904FF06D
:103C3000010B5146204603F0CFFD820548BFC4F872
:103C400014B010EA090FF4D094E70123A360002A0E
:103C500090D16A6922B1DFF8B0A0DFF8A8B006E021
:103C60006361F8E70123236263614FF0000919EAF9
:103C70000A0F7FF47FAF5946204603F0ADFD10F4E4
:103C8000007F8146F3D04FF08071204603F0A4FD01
:103C9000D4F800320028E5D013F4007103D10122DA
:103CA000226289466261DB05E1D54FF4802120461E
:103CB00003F092FDD9E7D4F8C434C4F8C434002228
:103CC00085F828206BB19A075ABF03F00108A8F1C4
:103CD0008C086FF00D0813F0040F18BF6FF00A087E
:103CE000DAE67B063FF5D8AE291D204603F020FD1D
:103CF000002808BF6FF08B08CEE66FF00C08CBE60B
:103D000002029C01020204000200040070B5056872
:103D100086B002210446284603F05EFD4FF4007190
:103D20000646284603F058FDD0B1D6B9E368C5F879
:103D300008330223E360E368C5F804334FF0807171
:103D4000284603F049FD18B1D5F800329B0502D48E
:103D500001232B626B61012384F8273006B070BD0C
:103D6000AEB3236A5E060AD494F827303BB9211D0E
:103D7000284603F0DDFC80F0010084F82700236A68
:103D800013F004033BD1C5F86031D5F86021C5F8C4
:103D90005C31D5F85C3194F8293013B194F82730B0
:103DA00013B30023C5F80032E360314BC5F8083384
:103DB00045F30733002B17DB5A09012103F01F03DA
:103DC000994002F160032B4A42F823100CE04FF4B3
:103DD0008021284603F000FD94F82430002B2FD1D9
:103DE00094F82930002BDDD0A38CADF80430236982
:103DF000049363690293A3690593E3690393D5F878
:103E0000C434C5F8C43498072CD459072CD4DA0725
:103E10002CD494F827309B00DBB28DF8003094F856
:103E200029300BB984F82830236A5B0703D594F84E
:103E30002730002B92D0D4E90131684698478DE7AE
:103E40004FF40073C5F8003240F20223E36003F13F
:103E5000CE73C5F80833E368C5F804330123AB60BB
:103E60002B627BE70123D8E70223D6E70323D4E7BD
:103E700002029C0100E100E0036803F01F025B09FD
:103E8000026004D0012B034818BF002070474FF098
:103E9000A040704700030050F7B5064603F03BFD15
:103EA000084603F038FD01A80196FFF7E5FF019BE6
:103EB0002F4D00EB83000C46D0F80037019440F200
:103EC0000D612B400B43C0F8003701A8FFF7D4FF6A
:103ED000019B00EB83000127D0F800372B400B43F8
:103EE000C0F80037042003F0D0F8092501A8019498
:103EF000FFF7C2FF019AD0F81035D340DB0715D485
:103F000001A80196FFF7B8FF019B07FA03F3C0F879
:103F10000C35042003F0B9F8304603F0FCFC013DF9
:103F2000042003F0B2F815F0FF05DFD101A80194D9
:103F3000FFF7A2FF019A01239340C0F80C3504203B
:103F400003F0A3F8204603F0E6FC042003F09DF8FC
:103F500001A80194FFF790FF019AD0F81035D340E3
:103F600013F0010F0CBF6FF08B00002003B0F0BD09
:103F7000F0F8FCFF38B5EFF31185202383F31288A6
:103F8000BFF36F8F064B9C6803F001FD85F311882A
:103F9000BFF36F8F2046BDE83840FDF78BBF00BFF1
:103FA0005C0A002038B50A4B53F82040013053F822
:103FB0002050A54200D838BD606830B1037FDB07D0
:103FC00001D403F0B9FC0834F3E723689847FAE713
:103FD0002C87000070B52A4B2A4C2B4D012286B04D
:103FE00003201A70FFF7DEFFFDF764FB0420FFF7E4
:103FF000D9FF2646AE4204F1300410D300F068FC2D
:10400000204C224EAC4226D300F076FCFDF710F88F
:104010001F4A137B23F00103137306B070BD54F8DD
:104020000C3C059354F8103C049354F8143C03934F
:1040300054F8183C029354F81C3C019354F8203C6B
:10404000009354E90A2354E90C0100F027FA54F8CC
:10405000303C5E65CDE7D4E90A23B3F1FF3F08BFEA
:10406000B2F1FF3F05D052EA0301206803D100F00E
:10407000FFFC3034C6E73146183000F097FEF8E711
:104080009B0C0020B8820000B8820000797B000001
:104090009002002070B5174E174D184986B0B02316
:1040A00003FB0066164B059301220F23CDE9033273
:1040B0000023CDE90133142303FB005504464FF4DC
:1040C000C07000FB04110F4B00954FF4A0723046F6
:1040D00000F0E4F9737B0C4AEE6023F00403737381
:1040E0004FF4046304FB033313442C746B6006B079
:1040F00070BD00BFE00100205C0A00200015002018
:10410000878E0000557A0000C00C0020BFB500204B
:10411000FFF748FF284B83F30888284C284F636932
:1041200043F4007363610025E02384F82230E577CF
:1041300025766576A57684F82050636A43F4E023FB
:10414000636284F82350FDF72BFEFDF7CBFF4FF0A1
:10415000FF33A362E362FEF78DF8FDF7E7FF19482E
:10416000194C00F011FA0120FFF71CFF0220FFF7A5
:1041700019FF00F0F5FB154B15495C61154B0593D4
:104180000123CDE903534FF480623B46CDE901554D
:104190000095204600F082F9627B064622F0040278
:1041A0002046627303F0BCFC2846FFF773FF3A46D3
:1041B00031462046FDF776FF0015002000ED00E0B7
:1041C000D53F000040030020900200205C0A002040
:1041D000801600208C8E000038B5064C064D00205D
:1041E000AC4200D338BD204603F0D4FB0028F9DBF5
:1041F0001C34F5E7700100207001002073B50C46F7
:10420000EFF31181202585F31288BFF36F8FC56806
:104210005DB125602B68C360836901338361002031
:1042200081F31188BFF36F8F11E052EA030603D1C7
:1042300025606FF00B00F3E7CDE90023024608305C
:1042400000F08CFA18B9034B9B681B69236002B01D
:1042500070BD00BF5C0A00202DE9F34104461746FB
:104260001E46EFF31188202383F31288BFF36F8F6C
:10427000C368334A7BB180689168884219D057EA95
:10428000060318D188F31188BFF36F8F6FF00F000A
:1042900002B0BDE8F081916891F90E1021610133FF
:1042A000E3609368A36088F31188BFF36F8F0020E9
:1042B000EEE72169F2E791F90E1090F90E3099427C
:1042C000A8BF19466FF07E029142B8BF11468B42DB
:1042D0002DDD03F0CAFB0546CDE9007619482246DC
:1042E000414600F03BFA0028E1D0EFF3118620238D
:1042F00083F31288BFF36F8FA068D0B12368216960
:104300009C420AD04BB193F90E309942A8BF19468E
:104310006FF07E039942B8BF194603F0A6FB40B187
:104320000848314600F0AEFA6FF00A00B0E7002509
:10433000D2E7002DF4D186F31188BFF36F8FF3E736
:104340005C0A00209C0C0020F8B583680546002B11
:1043500040D0234A926893423FD1C368012B03D9CE
:10436000013BC3600020F8BDEFF31187202383F3E6
:104370001288BFF36F8F0169806803F076FB2C68A9
:10438000A54207D10023C5E9023387F31188BFF3A3
:104390006F8FE7E7002CF5D0D4E9003213605A6044
:1043A000637B002623F002036373C4E90066A66002
:1043B00004F1180003F022FCAC6094F90E302B617C
:1043C0002046C4F8AC6003F0ABFB0648394600F069
:1043D00059FAC7E76FF01500C5E74FF0FF30C2E7A5
:1043E0005C0A00209C0C002070B5EFF3118620239E
:1043F00083F31288BFF36F8F0468A0421BD0D4B13F
:10440000D4E9003213605A60637B002523F0020375
:104410006373C4E90055A56004F1180003F0EEFBD6
:104420002046C4F8AC5003F07BFB31460748BDE89A
:10443000704000F027BAD0E902329A4218BF013327
:10444000836086F31188BFF36F8F70BD9C0C0020D2
:1044500013B5EFF31181202484F31288BFF36F8F1B
:10446000846844B1013C846081F31188BFF36F8F8D
:10447000002002B010BD52EA030406D181F3118876
:10448000BFF36F8F6FF00F00F3E7CDE90023024613
:10449000014800F063F9ECE79C0C00202DE9F04F97
:1044A000073285B022F0070204461E467F3200F133
:1044B0005803C0E9163322F03F02129B23730020F9
:1044C0000D46119BDDF838A0139FA06004213F2A00
:1044D000C4E906006173A373E07305F14009A2F11A
:1044E000400B05D880F31188BFF36F8F084602DFB9
:1044F00005EB020841462046FDF732FA0730109BD3
:1045000020F00700C4E9259BC4F89C0002930F9B90
:10451000A8EB000BCDE900A35A46334629462046B6
:10452000FDF78CFD0F9BA3664FF00008109BC4F8AD
:104530005480C4E9186AE366EFF31182202181F305
:104540001288BFF36F8F0F4D296A21672C6282F3A7
:104550001188BFF36F8F8FB11F22394604F17400A9
:1045600003F08EFB84F89380AB680BB1D3F8A030D6
:10457000C4F8A030584605B0BDE8F08F84F87470D8
:10458000F2E700BF5C0A002040F2011383810023A0
:10459000C0E92533C0F8A030014B9860704700BFD8
:1045A0005C0A00200A4A93686FF00A01C3F8AC1055
:1045B0000849C3F8A8004B6843F080534B600023C0
:1045C00083F31188BFF36F8F9368D3F8AC00704703
:1045D0005C0A002000ED00E070B590F90D20437BEF
:1045E000002A36DBD90634D11B4C63F07F03224608
:1045F000437352F8183FE169934207D1C0E90021A3
:104600000860E06111E09942F8D01B68002BF5D0FA
:1046100090F90E5093F90E60B542F4D0AE42F2DD3F
:104620005968C0E9003108605860A569954200D01A
:1046300005B9E568A3685A7BD20604D1DA897F2AD6
:1046400001D9AA6932B1AB4202D0284600F00AFB78
:10465000656170BD6361FCE75C0A002038B590F9C4
:104660000D20437B002A014604DA03F07F034373E5
:1046700003F01CFA0D4D2A46AB6852F8184F9442CD
:1046800000D004B9EC688B4207D05A7BD20604D123
:10469000DA897F2A01D9A2692AB1A34202D0204631
:1046A00000F0E0FA23466B6138BD00BF5C0A0020D1
:1046B000B3F1FF3F08BFB2F1FF3F03D0024918300A
:1046C00000F074BB704700BF797B000070B590F9B3
:1046D0000D20437B002A014604DA03F07F03437375
:1046E00003F0E4F94B7B1C4C63F07F0322464B73D1
:1046F00052F8183FE069934207D1C1E900200160F8
:10470000E16111E09842F8D01B68002BF5D091F9D7
:104710000E5093F90E60B542F4D0AE42F2DD586807
:10472000C1E9003001605960A569A368954200D0D5
:1047300005B9E5688B4207D05A7BD20604D1DA89E5
:104740007F2A01D9AA692AB1AB4202D0284600F0DB
:1047500089FA2B46636170BD5C0A0020F8B50E4BE8
:104760000C4611460D4A98681060DDE90667EFF3C4
:104770001182202282F31288BFF36F8F9D68284632
:1047800003F0A6F9284632463B46FFF791FF204644
:10479000BDE8F840FFF706BF5C0A0020800A002051
:1047A000F8B50446EFF31187202383F31288BFF393
:1047B0006F8F437B03F01F02002A0CBF01260026E7
:1047C00049B239D103F07F03437303F06FF92C4DE5
:1047D000437B817363F07F032A46437352F8183F8B
:1047E000934227D1E869C4E900200460EC610FE03E
:1047F0009842F8D01B68002BF5D093F90EC06145A4
:10480000F6D08C45F4DD5968C4E900310C605C6079
:10481000AC69944200D004B9EC68AB689C4202D009
:10482000204600F01FFA6C6187F31188BFF36F8F89
:104830003046F8BDE869DEE79B071ED5856803F0C2
:1048400035F981732B689D4209D16B68C4E9005327
:104850001C606C60E8E76A689342F6D01B68002B26
:10486000F3D093F90E209142F5D08A42F3DD5A68D5
:10487000C4E9003214605C60D6E78173D4E700BFFE
:104880005C0A002049B9EFF3058030B9054B5A693D
:104890009B689A4201D0FFF785BE81F31188BFF370
:1048A0006F8F70475C0A0020034648B9EFF305821A
:1048B00032B9064A51699268914201D0FFF772BE3F
:1048C00083F31188BFF36F8F704700BF5C0A00202D
:1048D000EFF31181202383F31288BFF36F8F054B11
:1048E0009A68D37B013BD37381F31188BFF36F8F39
:1048F000704700BF5C0A002070B5EFF311862023DB
:1049000083F31288BFF36F8F144DAB68DA7B0132EB
:10491000DA732A4652F8184F944200D004B9EC6872
:104920005A7BD20604D1DA897F2A01D9A2692AB139
:10493000A34202D0204600F095F923466B6186F32E
:104940001188BFF36F8FEFF31180202383F3128858
:10495000BFF36F8FBDE87040FFF7A6BF5C0A002071
:10496000024B03F11802C3E9062270475C0A0020DB
:1049700070B5EFF31186202383F31288BFF36F8F96
:104980001B4CA168E0690B68814214BF1A460022E3
:1049900049680B605960A368E1692AB9154AC3E9FF
:1049A00000210B60E3610CE093F90E0092F90E50C8
:1049B000A84218D0854216DD5168C3E900210B607A
:1049C0005360A5690B4B9D4200D005B9E568A3680B
:1049D0009D4202D0284600F045F965613046BDE8A9
:1049E0007040FFF7DFBD8A42D8D01268D5E700BF1C
:1049F0005C0A0020740A0020F8B550EA010306465C
:104A00000C4603D1FFF7B4FF0020F8BDEFF3118788
:104A1000202383F31288BFF36F8F124D124BA868C7
:104A20001860FFF71BFEA86810492346324618306D
:104A300000F0BCF9AA68537B43F0040353730446A7
:104A40003846FFF7AFFDAB68D3E90A23B3F1004F57
:104A500008BF002AD8D103F0F9F8201A20EAE07044
:104A6000D3E700BF5C0A0020800A0020797B0000A9
:104A700038B50446EFF31185202383F31288BFF382
:104A80006F8F437B5B070FD5183003F0B7F8637B5C
:104A900023F0040320466373FFF79EFD2946054873
:104AA000BDE83840FFF7EEBE85F31188BFF36F8F86
:104AB00038BD00BF9C0C0020014B9868704700BFB8
:104AC0005C0A00202DE9F8430446077BEFF31185CB
:104AD000202383F31288BFF36F8F437B190705D51B
:104AE00085F31188BFF36F8FBDE8F883D90943F0D0
:104AF000080260D14273A36813B1204602F0DEFFC2
:104B000004F1180003F07AF8A66D04F15808B045D6
:104B100011D04FF0000976B1304602F0CFFF06F118
:104B2000180003F06BF8C6F8AC903046FFF754FD60
:104B3000A66DB045EFD1DFF8C480D8F808309C42AC
:104B400041D1EFF30589B9F1000918BF4FF0010910
:104B5000D8F818602A4A964200D00EB9D8F80C60EE
:104B6000B34202D0304600F07DF82046C8F8146009
:104B700001F009FF204600F0CDF8B9F1000F02D096
:104B80002048FFF701FDD8F808309C4231D1EFF3FF
:104B9000058373BB227BD20718D42846FFF702FD9A
:104BA000FB07A1D5002383F31188BFF36F8F042384
:104BB000184602DF98E703F07F0343F008034373CE
:104BC00002F074FF97E74FF00009C1E785F3118801
:104BD000BFF36F8F83F31188BFF36F8F04231846E1
:104BE00002DFEFF31180202383F31288BFF36F8F6E
:104BF000D4E785F31188BFF36F8FD1E75C0A0020FB
:104C0000740A002040030020044BC01A044BC0105B
:104C10005843044B01221A54704700BFF003002090
:104C2000ABAAAAAA9C0C0020C3897F2B12D80A4BDE
:104C30001B6863B1094B90F90E201B689A4209DB8F
:104C4000437BDB0606D1064BC31A18BF012303F0D2
:104C5000010070470023FAE7F8000020840A0020D2
:104C6000E001002070B50E4B0E4C1E7C06EB460397
:104C700004EBC3040546204602F0C0FF0A4B0022A5
:104C800028469A55FFF7D0FF48B1084B08491A68E3
:104C9000013A2046D317BDE8704000F087B870BDD8
:104CA0005C0A0020F00300209C0C0020F80000208B
:104CB000094C000038B5EFF31185202383F31288E7
:104CC000BFF36F8F104B114A9C681068A04206D149
:104CD000FFF7C8FF85F31188BFF36F8F38BD002140
:104CE0001B7C11600A4AD35C002BF3D02046FFF7EF
:104CF0009BFF0028EED0637BDB0602D12046FFF746
:104D0000E5FC2046E4E700BF5C0A0020800A0020A2
:104D10009C0C0020EFF31181202383F31288BFF352
:104D20006F8F0A4A136A834207D11B6F136281F3A4
:104D30001188BFF36F8F70471346002BF7D01A6F9F
:104D40008242F9D1026F1A67F1E700BF5C0A0020C6
:104D5000024B1868984208BF00207047FC000020F2
:104D6000034B1B680BB9FEF72FBA0020704700BF3A
:104D7000880A002030B570B10B4B5B6898420AD0AE
:104D8000036843B1D3E90421D0E90445121941EB8A
:104D90000501C3E90421D0E9003213605A60002301
:104DA000C0E9003330BD00BFFC000020B3F1FF3F7D
:104DB00008BFB2F1FF3F2DE9F84F0446994615466A
:104DC0001F467AD08160EFF31188202383F3128885
:104DD000BFF36F8FB9F1000FDFF8E4A020DBFFF71E
:104DE000BFFFDAE90027013549F100092D1849EB29
:104DF000E073C4E90453AD18064643EB07074FF0D0
:104E00000109FFF7A5FFDFF8BCE0DEF804A00346C8
:104E1000EBB9C4E900EACAF80040CEF8044028E043
:104E2000DAE900126FF001035B1A4FF0FF3161EB1A
:104E300002025B1B62EB0902012B72F10001BCBF95
:104E400001230022C0E904324FF00009D9E7D3E979
:104E5000041CD4E904208A4270EB0C0B24DA891A72
:104E60005A686CEB0000C3E90410C4E90032146016
:104E70005C60FFF76DFF84420ED1134B1B685BB97A
:104E8000B9F1000F02D1FFF76BFF0646304602F082
:104E90009EFE0021FEF76AF988F31188BFF36F8F39
:104EA00028463946BDE8F88F521A60EB0C009A4547
:104EB000C4E90420ADD01B68AAE700252F46EFE720
:104EC00008040020FC000020880A00202DE9F0479B
:104ED000EFF31185202383F31288BFF36F8FDFF880
:104EE000A490DFF8A480C9F80000FFF731FF002686
:104EF0000027D9F80030D8E900ECD91750B1D0E933
:104F00000442A34271EB020A1CDAE41A62EB0102CA
:104F1000C0E9044213EB0E034FF000044CEB010117
:104F20002046C8E90031C9F8004002F050FE214691
:104F3000FEF71CF985F31188BFF36F8FBDE8F047CA
:104F4000FFF7B8BE14EB0E024CEBE473C0E9046744
:104F5000C8E90023FFF70EFF85F31188BFF36F8FB9
:104F600083689847EFF31185202383F31288BFF3FA
:104F70006F8FD9F800301B1BC9F80030FFF7E8FE2F
:104F8000B7E700BF880A00200804002010B5EFF33F
:104F90001184202383F31288BFF36F8FFFF7E0FEA5
:104FA000054A0346D2E90001181841EBE37184F386
:104FB0001188BFF36F8F10BD0804002010B50A4C94
:104FC00023681BB101232360002010BD00F0EAF824
:104FD0000028F7D00138062803D8044B53F82000E6
:104FE00010BD034810BD00BF8C0A0020448700009C
:104FF000FE8FFFFFBFF34F8F0549064BCA6802F4CF
:10500000E0621343CB60BFF34F8F00BFFDE700BFEB
:1050100000ED00E00400FA0510B4094B09490A4C00
:105020004FF0FE32C3F800244968C3F80424C3F8E3
:105030000824C3F80C240023C4F8003510BC08472A
:1050400000B002500401002000A00250D0E900127C
:10505000014BC3E9001270470401002010B504465B
:1050600050B1636813F0685F05D0064A934202D0DE
:1050700000232360626010BD034B04485B689847BF
:10508000EFE700BF2C5F5CA90401002060870000EF
:10509000C8B143680D4A934213D013F0685F0ED035
:1050A000012350E8002F194640E8001C9CF0000F37
:1050B000F7D1012AF5D0BFF35F8F00207047044875
:1050C0007047044870476FF4E04070472C5F5CA95C
:1050D000E98FFFFFEA8FFFFF80B14368094A9342DF
:1050E0000AD013F0685F05D0BFF35F8F0023036021
:1050F0001846704704487047044870476FF4E04012
:10510000704700BF2C5F5CA9E98FFFFFEA8FFFFFAC
:1051100010B5044620B1044B63600022226010BD2C
:105120000248FFF779FFF6E73A00003A8887000067
:1051300070B5D0E90023174C174D6360D0E90230F9
:10514000C4E9023022604868D1F800C0134BC3E9BB
:1051500000C0D5F81801D1F808C0C3F808C010F095
:10516000685FD1F80CC00969C3F80CC0196110D090
:105170000B49C5F8BC110023C5E9453105F58A7016
:10518000C5F8B8319047236805F5DC70BDE870407C
:10519000184770BD20010020A40A00200C01002047
:1051A0002C5F5CA938B500F02FF820B1032400F083
:1051B00063F8204638BD00F031F898B900F0ACF83B
:1051C00098B90F4DD5F828391B0EF02B08D1D5F81A
:1051D000242A0C4B9A420AD0072400F017F8E6E77D
:1051E0000624FAE70424204638BD0024F5E7012010
:1051F00000F092F804460028F7D1C5F80C0AD8E769
:1052000000B002500000E0200020704700207047EE
:10521000014BC3F8040A704700B0025010B51148A2
:1052200000F048F800B110BD0F4800F043F8002826
:10523000F9D10E4C204600F03DF80028F3D10C4B7C
:105240000C481C6000F036F801460028EBD100F055
:105250002DF8044608B1204610BD00F03FF8204666
:10526000FAE700BF600100205C0100205801002027
:10527000500100205401002008B5084800F024F82F
:10528000074800F021F8074800F01EF8064800F033
:105290001BF8BDE8084000F00BB800BF600100201B
:1052A0005C010020580100205401002000207047BC
:1052B000704700BF08B5034B02681B681068984729
:1052C000002008BD2001002008B5034B02685B6880
:1052D00010689847002008BD2001002070B5094CD7
:1052E000094D2069AB68984718B1084B08485B68BE
:1052F0009847084AEB68206900211160BDE87040BA
:10530000184700BF0C0100202001002004010020EC
:10531000AC870000A00A0020F8B51A4D1A4E0446CA
:10532000B26828699047E8B9184F3B684CB1A3B1FF
:10533000012B19D0013B3B602869F3689847002096
:10534000F8BD43B9124A0121C2F800151149D1F83C
:105350001029002AFBD101333B60F3682869984784
:105360000020F8BD0C48F8BD0A4AD2F81039002BCD
:10537000FBD1074A6FF07E40C2F80035FFF748FFC7
:105380003B68D7E70C01002020010020A00A002084
:1053900000A0025000B00250E98FFFFF2DE9F0415C
:1053A00001260746B24201DCBDE8F0813B461F46BC
:1053B00013F8014B002CF7D0252CF8D11C78252CA4
:1053C00007F10207F2D00023DFF804819C461D4656
:1053D0001F2D18D8A4F1200EBEF1100F09D9A4F189
:1053E000300EBEF1090F1ED80A2404FB03E320256A
:1053F00004E028FA0EFE1EF0010F06D017F8014B4C
:10540000002CE5D128E07F2D1CD8A4F1300EBEF190
:10541000090FE9D9242C10D1BCF1000F46D0B342BA
:1054200046D00023EAE724F0040EBEF12A0FF8D09C
:105430006C2C09D145F08005E0E724F0040EBEF1A4
:105440002A0FEED06C2C22D06C2C1BD8682C23D0C9
:105450006A2C28D04C2C26D0BCF1000FA4D0B44527
:10546000A0D144F02007A7F1650CBCF1020F0B6836
:1054700001D9612F1ED1073323F0070308330B60D6
:1054800001368EE7742CB9D07A2CB7D0E4E72C061D
:1054900048BF45F40075CDE7EC0548BF45F40075FD
:1054A00045F48075AAE745F42075A7E79C46B8E760
:1054B0006324D6E7692C02D007D8632C03D02F06CB
:1054C00001D5AC05D7D40433D9E7732CF6E700BF78
:1054D000892801002DE9F04F95B043680393837844
:1054E00080469807CDE9081217D50D920B46002586
:1054F0001F78A7B1252F16D001330793039B414690
:1055000038469847002805F1010580F2398498F85B
:10551000023043F0040388F802304FF0FF3528468C
:1055200015B0BDE8F08F5F789A1C252F0792E5D063
:1055300000242646A246A346BBF11F0F32D8A7F18E
:105540002003102B0AD8DFE803F02409092A0909EF
:10555000091B09090922092709091900A7F13003C4
:10556000092B2DD92A2F39D154B90D9B1BF0400F8F
:1055700053F8042B0D9329D0164601E04BF0010B94
:10558000079B13F8017B0793002FD5D15BE04BF00D
:10559000020B4BF0040BF3E74BF0080BF0E74BF07A
:1055A000100BEDE7BBF17F0F3FD8A7F13003092BBC
:1055B000D8D81BF0400F03D00A2202FB0636DFE7E3
:1055C0000A2202FB0A3A4BF0200BD9E7B2F1000A9B
:1055D000F9DACAF1000A4BF0280BD1E72E2F05D1DA
:1055E0001BF0400F9BD14BF0400BC9E7242F1CD17F
:1055F000002C00F04281099B0D931BF0400F0AD153
:10560000524608980DA9FFF7C9FE0D9B1A1DD3F845
:1056100000A00D92B4E7324608980DA9FFF7BEFE30
:105620000D9B1A1D1E680D92AAE76C2F00F01281C7
:1056300000F20981682F00F015816A2F00F01A81AD
:105640004C2F00F0178134B1099B08980D93224626
:105650000DA9FFF7A3FE002E47F02009B8BF2BF0DD
:10566000400BA9F16503BCBF1FFA8BFB0026022B80
:1056700040F20881B9F1610F40F06782FF4307F003
:10568000200306930D9B073323F007031BF0400F05
:10569000D3E9000103F1080208BF4FF0FF36069B73
:1056A0000D9200930EAA334602F023FC0130C3B2E0
:1056B000B3424BF4C054049301DB049B5E1E0123F0
:1056C0000E9F0593A3464FF0700907F10903122BB3
:1056D0000DD907F16303C62B40F20F8107F2E733C0
:1056E00040F2CE72934294BF0323042305939DF8A6
:1056F0003C2002F00C0312F0010240F019811BF073
:10570000020F40F012811BF0040400F0F880002B1F
:1057100040F0118120231BF4405F1FD1049A5032C6
:10572000002E6A4408BF0126133A049921B112F8E9
:10573000011D302900F036811BF0100F049A18BFAC
:105740003246391DC0F23381B74280F23081BA420D
:105750004BF4005B40F32D817E1C961B1BF4005222
:105760000A9200F0288127EAE774013403B101347A
:10577000002E00F02881721C1444A245CCBFAAEB75
:10578000040400241BF0090F04D12C44A54240F06E
:105790001F81002443B118464146039B98470028C7
:1057A00005F10105FFF6B3AE1BF4006F13D0039BA8
:1057B0004146302098470028FFF6A9AE069BC3F16A
:1057C00078004146039B00F0F8009847002805F157
:1057D0000205FFF69CAE1BF0080F05D12C44AC422D
:1057E00040F00281254600240A9B002B00F01C811A
:1057F00027EAE77AA7EB0A077642049BBB4284BFFD
:105800000EABFB180AF1FF3A88BF5879039B98BF8B
:105810003020564505F10109414600F3EF809847D5
:10582000002807F10107FFF672AEBAF1FF3F08D179
:10583000039B41462E2098470028FFF668AE05F1ED
:1058400002094D46D9E7742F3FF49AAE7A2F3FF400
:1058500097AEF8E61BF0800F18BF4BF4007B4BF0BF
:10586000800B8DE61BF4807F18BF4BF4007B4BF45C
:10587000807B85E64BF4207B82E62646B346544681
:10588000B2467DE6FF4307F0200306930D9B0733E6
:1058900023F007031BF0400F03F1080208BF0626A0
:1058A000B9F1650FD3E900010D9213D1731C0022E9
:1058B000DBB24BF4805B1446112BCDE9002428BFEA
:1058C00011230EAA00F0FCFAC3B2049302230E9F28
:1058D0000593FAE6B9F1660F05D14BF4005B344647
:1058E00001221123E8E7F3B2012B4FF0000238BF89
:1058F000012314464FF06509DEE70223F6E6002B8C
:105900003FF409AFBAF1030F3BDC9DF83C30A64EE3
:1059100013F0080FA54B08BF1E463746B94617F8C7
:10592000010BB0BBAE1BB1447BE033BB2B23F2E6D3
:105930002BBB2D23EFE62022BAF1040F13DD1BF061
:10594000080FAAF104040FD12C44039B0492414692
:1059500020209847002805F10105FFF6D8ADA542A3
:10596000049AF2D19AB10024039B4146104698470D
:10597000002805F10105C8DAC9E52B22DCE72D2254
:10598000DAE71BF0080FAAF10304BED1DCE71446E6
:10599000BBE7069BC01A4146039BC0B2984700284C
:1059A000BCDAB4E504990139C9B20491BDE6561ECA
:1059B000D4E60026D2E61BF4006F059A0CBF032440
:1059C00005241444D2E61BF0100F18BF0134D4E6AE
:1059D0000B934146039B2020984700280B9B05F121
:1059E0000105BFF6D3AE92E5039B414630209847B0
:1059F000002805F10105BFF6F2AE88E598470028BA
:105A0000FFF685AD1BF0100F0BD0BAF1FF3F08D1A8
:105A100005F1020941462E20039B98470028FFF616
:105A200076AD4D464C4433E29DF83D00039B414624
:105A300098470028FFF66BAD002E69DD039B4146B9
:105A40002E2098470028FFF662AD4FF0010A049B14
:105A50009A45BBBF0EAB534430205879039B414657
:105A600098470028D346FFF652AD0AF1010A564581
:105A7000EDDA02355D44069BA9EB03004146039B2A
:105A8000C0B298470028FFF642AD002FB4BF2D20CA
:105A90002B20039B4146B8BF7F4298470028FFF662
:105AA00036AD059B042B41D14FF47A79B7FBF9F65B
:105AB00006F13000039B4146C0B29847002805F12B
:105AC0000305FFF624AD09FB16774FF06409B7FB19
:105AD000F9F606F13000039B4146C0B29847002812
